:020000040000FA
:0400000007EF00F016
:0A0008005F82ECED09F02CEF0AF026
:10080000004C6172677572612B203D202564005495
:100810004D5232203D202564000024C03CF025C00C
:100820003DF026C03EF027C03FF028C040F029C070
:1008300041F02AC042F02BC043F043BE22EF04F047
:1008400025EF04F0010E26EF04F0000E3A6E3B6A2D
:100850003A503B10D8B42FEF04F031EF04F041EFE1
:1008600004F0431E421E411E401E3F1E3E1E3D1E02
:100870003C6C000E3D223E223F2240224122422279
:100880004322000165BF47EF04F049EF04F04AEF4F
:1008900004F0669365BF57EF04F0655106E1640507
:1008A000D8B055EF04F057EF04F05DEF04F0000E00
:1008B000376E010E366E61EF04F064C036F065C02D
:1008C00037F062C038F063C039F03A503B10D8A41A
:1008D0006CEF04F06EEF04F075EF04F066A573EFB3
:1008E00004F075EF04F078EF04F03806D8A039066C
:1008F000000E456E1F0E446E000E886FFCEF04F074
:100900004406D8A04506690E4424D96E000E452041
:10091000DA6E3CC001F03DC002F03EC003F03FC0C3
:1009200004F040C005F041C006F042C007F043C0EB
:1009300008F00A0E096E000E0A6E000E0B6E000E15
:100940000C6E000E0D6E000E0E6E000E0F6E000E81
:10095000106E1CEC07F001C02CF002C02DF003C09B
:100960002EF004C02FF005C030F006C031F007C0F3
:1009700032F008C033F02CC013F02EC014F0B1ECEC
:1009800009F01350300FDF6E3606D8A03706380650
:10099000D8A039063CC001F03DC002F03EC003F0D3
:1009A0003FC004F040C005F041C006F042C007F06F
:1009B00043C008F00A0E096E000E0A6E000E0B6EA0
:1009C000000E0C6E000E0D6E000E0E6E000E0F6E01
:1009D000000E106E58EC06F001C03CF002C03DF075
:1009E00003C03EF004C03FF005C040F006C041F037
:1009F00007C042F008C043F045BE07EF05F0455080
:100A000008E14404D8A007EF05F009EF05F03AEF3C
:100A100005F03C503D103E103F1040104110421078
:100A20004310D8A416EF05F018EF05F080EF04F09E
:100A300037BE25EF05F0375006E13604D8B023EF76
:100A400005F025EF05F080EF04F039BE30EF05F03A
:100A5000395008E13804D8A030EF05F032EF05F046
:100A60003AEF05F0000166B338EF05F03AEF05F014
:100A700080EF04F03A503B10D8A441EF05F043EF6B
:100A800005F04BEF05F0000166A549EF05F04BEFCF
:100A900005F069EF05F04406D8A045063A503B1032
:100AA000D8A455EF05F057EF05F05DEF05F0000E07
:100AB000356E2B0E346E61EF05F0000E356E2D0E87
:100AC000346E690E4424D96E000E4520DA6E34C0AF
:100AD000DFFF22C017F023C018F0690E4424196EFE
:100AE000000E45201A6E38C01BF039C01CF0CEEC49
:100AF00007F017C022F018C023F0120048C0D9FF39
:100B000049C0DAFFDECFF6FFDDCFF7FF0800F55072
:100B1000250AD8A48EEF05F090EF05F03CEF06F023
:100B200048C0D9FF49C0DAFFDE2A000EDD22000EE0
:100B30000001636F000E626F62C066F063C067F011
:100B40006469656948C0D9FF49C0DAFFDECFF6FFA6
:100B5000DDCFF7FF0800F550640AD8B4B2EF05F016
:100B6000B4EF05F0C6EF05F048C0D9FF49C0DAFF81
:100B7000DECFF6FFDDCFF7FF0800F550690AD8A4F5
:100B8000C4EF05F0C6EF05F006EF06F048C0D9FF48
:100B900049C0DAFFDE2A000EDD224AC0D9FF4BC071
:100BA000DAFFDFCF4CF0020EDE26DFCF4DF0000E75
:100BB000DD224CC0D9FF4DC0DAFFDECF4EF0DDCFD5
:100BC0004FF0000E4FBEFF0E506E516E526E536EC0
:100BD000546E556E46C022F047C023F04EC024F03C
:100BE0004FC025F050C026F051C027F052C028F069
:100BF00053C029F054C02AF055C02BF00DEC04F07E
:100C000022C046F023C047F057EF06F048C0D9FF96
:100C100049C0DAFFDECFF6FFDDCFF7FF0800F55061
:100C2000250AD8A416EF06F018EF06F02FEF06F00D
:100C300048C0D9FF49C0DAFFDE2A000EDD22000ECF
:100C4000086E250E076E46C009F047C00AF031EC69
:100C500008F0000E476E010E466E57EF06F048C0D2
:100C6000D9FF49C0DAFFDE2A000EDD22000E476EF2
:100C7000000E466E57EF06F048C0D9FF49C0DAFFB4
:100C8000DECFF6FFDDCFF7FF0800F550076E086AEC
:100C900046C009F047C00AF031EC08F048C0D9FF5F
:100CA00049C0DAFFDE2A000EDD2229EF06F012002D
:100CB000000E126E10BE61EF06F05FEF06F073EFEC
:100CC00006F0101E0F1E0E1E0D1E0C1E0B1E0A1E01
:100CD000096C000E0A220B220C220D220E220F227A
:100CE0001022010E126E08BE7AEF06F078EF06F0C1
:100CF0008CEF06F0081E071E061E051E041E031EAE
:100D0000021E016C000E022203220422052206228A
:100D100007220822010E121A20EE13F0070EDE6AD7
:100D2000E806FDE209500A100B100C100D100E1011
:100D30000F101010D8B49FEF06F0A1EF06F0F3EFFC
:100D400006F0010E116EAFEF06F0D89009360A36A4
:100D50000B360C360D360E360F361036112A10AE05
:100D6000B4EF06F0B6EF06F0A5EF06F0D890133614
:100D70001436153616361736183619361A360950FF
:100D8000015C0A5002580B5003580C5004580D5087
:100D900005580E5006580F50075810500858D8A044
:100DA000D4EF06F0D6EF06F0E7EF06F00950015E4B
:100DB0000A50025A0B50035A0C50045A0D50055A4F
:100DC0000E50065A0F50075A1050085A1380D890E8
:100DD00010320F320E320D320C320B320A3209321F
:100DE000112EB6EF06F01250D8B4F9EF06F0FBEF73
:100DF00006F00BEF07F01A1E191E181E171E161EFE
:100E0000151E141E136C000E142215221622172212
:100E1000182219221A2213C001F014C002F015C0C2
:100E200003F016C004F017C005F018C006F019C092
:100E300007F01AC008F01200000E126E08BE25EF6F
:100E400007F023EF07F037EF07F0081E071E061E16
:100E5000051E041E031E021E016C000E0222032248
:100E600004220522062207220822010E126E10BE5D
:100E70003EEF07F03CEF07F04EEF07F0101E0F1E9D
:100E80000E1E0D1E0C1E0B1E0A1E096C000E0A22E1
:100E90000B220C220D220E220F22102209500A10C2
:100EA0000B100C100D100E100F101010D8B45BEFBB
:100EB00007F05DEF07F0A5EF07F0010E116E6BEF85
:100EC00007F0D89009360A360B360C360D360E363A
:100ED0000F361036112A10AE70EF07F072EF07F0E0
:100EE00061EF07F00950015C0A5002580B5003589B
:100EF0000C5004580D5005580E5006580F50075806
:100F000010500858D8A087EF07F089EF07F099EF45
:100F100007F00950015E0A50025A0B50035A0C5058
:100F2000045A0D50055A0E50065A0F50075A1050C9
:100F3000085AD89010320F320E320D320C320B326A
:100F40000A320932112E72EF07F01250D8B4ABEF0B
:100F500007F0ADEF07F0BDEF07F0081E071E061EF5
:100F6000051E041E031E021E016C000E0222032237
:100F70000422052206220722082201C001F002C035
:100F800002F003C003F004C004F005C005F006C081
:100F900006F007C007F008C008F01200000166A1C3
:100FA000D4EF07F0D6EF07F0E0EF07F019C010F02C
:100FB0001AC011F017C012F018C013F06EEC09F04F
:100FC0001CBEE5EF07F0E7EF07F0EDEF07F01BC001
:100FD00020F01CC021F0F1EF07F0000E216E000E92
:100FE000206E000E1F6E000E1E6E03EF08F0000E46
:100FF000086E200E076E17C009F018C00AF031EC19
:1010000008F01E4A1F2A20501E5C1F50800A1D6EC9
:101010002150800A1D58D8A010EF08F012EF08F0F8
:10102000F7EF07F0000166B118EF08F01AEF08F0CB
:1010300024EF08F019C010F01AC011F017C012F018
:1010400018C013F06EEC09F019C001F01AC002F0DC
:10105000D1EC09F020500124176E21500220186EA7
:10106000120009500A10D8B438EF08F03AEF08F02F
:1010700043EF08F009500A10D8A441EF08F043EFFD
:1010800008F048EF08F0075042EC0AF07BEF08F058
:1010900020EE04F00950D9260A50DA22DE50DE1084
:1010A000D8B455EF08F057EF08F072EF08F020EED3
:1010B00004F00950D9260A50DA2210EE02F0095045
:1010C000E1260A50E222DE50E65CE650800A0F6E0E
:1010D000DE50800A0F58D8B070EF08F072EF08F0B9
:1010E0007BEF08F020EE02F00950D9260A50DA22F0
:1010F000DE2A000EDD221200026E838202C001F0A1
:10110000010E0116013A83500118EF0B0118836E8E
:1011100002C001F0D8900132010E0116013A0146D9
:1011200083500118DF0B0118836E02C001F0D890C4
:101130000132D8900132010E0116013A01460146F2
:1011400083500118BF0B0118836E02C001F0D890C4
:101150000132D8900132D8900132010E01160132CD
:101160000132835001187F0B0118836E100EE82E98
:10117000FED700D08392100EE82EFED700D01200CA
:1011800083928398839A839C839E410E056EEE0E14
:10119000E82EFED7052EFCD700D0030E7CEC08F01D
:1011A000060E056E300EE82EFED7052EFCD700D0B9
:1011B000030E7CEC08F0210EE82EFED700F0030EA3
:1011C0007CEC08F0020E7CEC08F0010E036E000EC1
:1011D0001AEC0AF0030E056E980EE82EFED7052EC7
:1011E000FCD7280E036E000E1AEC0AF00C0E036EEC
:1011F000000E1AEC0AF0060E036E000E1AEC0AF04E
:1012000012009380F18C000E956EC0EC08F0FC0E7D
:10121000CA16CA50870B1809CA6ECA84F28EF288A1
:10122000F28E0D0E5E6EFC0EE82EFED75E2EFCD703
:10123000010E056E010E90EC09F00F0E0001896F92
:10124000080E8A6F68C08BF08C6B06EC0AF0010EFA
:10125000056E020E90EC09F0010E0001896F080E78
:101260008A6F6851020DF3CF8BF0F4CF8CF006EC4F
:101270000AF011EF09F007EF00F058C05CF059C018
:101280005DF0000E0001616F000E606F5BEF09F012
:1012900056C046F057C047F05C0E486E000E496ECF
:1012A0005AC04AF05BC04BF07EEC05F0465000019E
:1012B0006027475061235CC0F6FF5DC0F7FF080060
:1012C000F5500009D8A467EF09F069EF09F048EF7D
:1012D00009F060C056F061C057F01200000E166EA3
:1012E000000E156E7FEF09F014C007F0086A12C0F7
:1012F00009F013C00AF031EC08F0154A162A15500F
:101300001024D96E16501120DA6EDF50146E14506E
:10131000D8A48DEF09F08FEF09F074EF09F01200F7
:10132000066E000E076E0604D8A499EF09F09BEF35
:1013300009F09DEF09F0800E076E020E0618D8A482
:10134000A4EF09F0A6EF09F0A8EF09F0C00E076EB0
:1013500007500524076E07C003F0000E1AEC0AF0D0
:10136000120014BEBEEF09F0145006E11304D8B009
:10137000BCEF09F0BEEF09F0CCEF09F013C015F097
:1013800014C016F0151E161E154A162A15C013F0A5
:1013900016C014F0D0EF09F013C013F014C014F00D
:1013A000120001C003F002C004F0D9EF09F0014AB5
:1013B000022A01C0D9FF02C0DAFFDF50D8A4E3EF50
:1013C00009F0E5EF09F0D7EF09F00350015C016E79
:1013D00004500258026E12000600F2A2F2EF09F069
:1013E000F4EF09F004EF0AF0F292F1ACFAEF09F031
:1013F000FCEF09F001EF0AF0000ECC6EF19C04EF57
:101400000AF0CCCF68F0F18C5F9211008B0E0001D6
:101410008F6F000E906F000E566E000E576E89C0D3
:1014200058F08AC059F08F0E5A6E000E5B6E3DEC7C
:1014300009F01200046E04B002D0839001D08380C2
:1014400000D000D000F003380F0B7CEC08F0035004
:101450000F0B7CEC08F0120000EE60F0290EEE6A33
:10146000E806FDE15F905F92000EF86E080EF76EE1
:10147000000101EF09F0056E05C003F0010E1AEC42
:0E1480000AF01200066E06503BEC0AF0120055
:020000040020DA
:08000000FFFFFFFFFFFFFFFF00
:020000040030CA
:0E00000000001F1EFF8181FF0FC00FE00F40A8
:00000001FF
